{
  "_format": "hh3-artifact-1",
  "contractName": "TokenVault",
  "sourceName": "contracts/TokenVault.sol",
  "abi": [
    {
      "inputs": [
        {
          "internalType": "address",
          "name": "_token",
          "type": "address"
        }
      ],
      "stateMutability": "nonpayable",
      "type": "constructor"
    },
    {
      "inputs": [
        {
          "internalType": "uint256",
          "name": "amount",
          "type": "uint256"
        }
      ],
      "name": "deposit",
      "outputs": [],
      "stateMutability": "nonpayable",
      "type": "function"
    },
    {
      "inputs": [
        {
          "internalType": "address",
          "name": "",
          "type": "address"
        }
      ],
      "name": "deposits",
      "outputs": [
        {
          "internalType": "uint256",
          "name": "",
          "type": "uint256"
        }
      ],
      "stateMutability": "view",
      "type": "function"
    },
    {
      "inputs": [],
      "name": "token",
      "outputs": [
        {
          "internalType": "contract Token",
          "name": "",
          "type": "address"
        }
      ],
      "stateMutability": "view",
      "type": "function"
    }
  ],
  "bytecode": "0x6080604052348015600e575f5ffd5b50604051610330380380610330833981016040819052602b91604e565b5f80546001600160a01b0319166001600160a01b03929092169190911790556079565b5f60208284031215605d575f5ffd5b81516001600160a01b03811681146072575f5ffd5b9392505050565b6102aa806100865f395ff3fe608060405234801561000f575f5ffd5b506004361061003f575f3560e01c8063b6b55f2514610043578063fc0c546a14610058578063fc7e286d14610087575b5f5ffd5b6100566100513660046101f4565b6100b4565b005b5f5461006a906001600160a01b031681565b6040516001600160a01b0390911681526020015b60405180910390f35b6100a661009536600461020b565b60016020525f908152604090205481565b60405190815260200161007e565b5f546040516370a0823160e01b815233600482015282916001600160a01b0316906370a0823190602401602060405180830381865afa1580156100f9573d5f5f3e3d5ffd5b505050506040513d601f19601f8201168201806040525081019061011d9190610238565b101561016f5760405162461bcd60e51b815260206004820152601a60248201527f496e73756666696369656e7420746f6b656e2062616c616e6365000000000000604482015260640160405180910390fd5b5f5460405163a9059cbb60e01b8152306004820152602481018390526001600160a01b039091169063a9059cbb906044015f604051808303815f87803b1580156101b7575f5ffd5b505af11580156101c9573d5f5f3e3d5ffd5b5050335f90815260016020526040812080548594509092506101ec90849061024f565b909155505050565b5f60208284031215610204575f5ffd5b5035919050565b5f6020828403121561021b575f5ffd5b81356001600160a01b0381168114610231575f5ffd5b9392505050565b5f60208284031215610248575f5ffd5b5051919050565b8082018082111561026e57634e487b7160e01b5f52601160045260245ffd5b9291505056fea26469706673582212206e68343ed5b3b9894fd1d83b3c177db2c6afffdd6e7ef562f95a6c0f4228ffb564736f6c634300081c0033",
  "linkReferences": {},
  "deployedLinkReferences": {},
  "immutableReferences": {},
  "inputSourceName": "project/contracts/TokenVault.sol",
  "buildInfoId": "solc-0_8_28-7305f40c839f51de91699f8dfadbb4ac26ba4e86"
}